{
  "contractName": "Admin",
  "abi": [
    {
      "anonymous": false,
      "inputs": [
        {
          "indexed": false,
          "internalType": "uint256",
          "name": "id",
          "type": "uint256"
        },
        {
          "indexed": false,
          "internalType": "string",
          "name": "noLisensi",
          "type": "string"
        },
        {
          "indexed": false,
          "internalType": "string",
          "name": "namaMitra",
          "type": "string"
        },
        {
          "indexed": false,
          "internalType": "string",
          "name": "alamat",
          "type": "string"
        },
        {
          "indexed": false,
          "internalType": "string",
          "name": "tlp",
          "type": "string"
        },
        {
          "indexed": false,
          "internalType": "string",
          "name": "ipfsHash",
          "type": "string"
        },
        {
          "indexed": false,
          "internalType": "string",
          "name": "checksumFile",
          "type": "string"
        }
      ],
      "name": "CreateTx",
      "type": "event"
    },
    {
      "constant": true,
      "inputs": [],
      "name": "idCount",
      "outputs": [
        {
          "internalType": "uint256",
          "name": "",
          "type": "uint256"
        }
      ],
      "payable": false,
      "stateMutability": "view",
      "type": "function"
    },
    {
      "constant": true,
      "inputs": [
        {
          "internalType": "uint256",
          "name": "",
          "type": "uint256"
        }
      ],
      "name": "licenses",
      "outputs": [
        {
          "internalType": "uint256",
          "name": "id",
          "type": "uint256"
        },
        {
          "internalType": "string",
          "name": "noLisensi",
          "type": "string"
        },
        {
          "internalType": "string",
          "name": "namaMitra",
          "type": "string"
        },
        {
          "internalType": "string",
          "name": "alamat",
          "type": "string"
        },
        {
          "internalType": "string",
          "name": "tlp",
          "type": "string"
        },
        {
          "internalType": "string",
          "name": "ipfsHash",
          "type": "string"
        },
        {
          "internalType": "string",
          "name": "checksumFile",
          "type": "string"
        }
      ],
      "payable": false,
      "stateMutability": "view",
      "type": "function"
    },
    {
      "constant": false,
      "inputs": [
        {
          "internalType": "string",
          "name": "_noLisensi",
          "type": "string"
        },
        {
          "internalType": "string",
          "name": "_namaMitra",
          "type": "string"
        },
        {
          "internalType": "string",
          "name": "_alamat",
          "type": "string"
        },
        {
          "internalType": "string",
          "name": "_tlp",
          "type": "string"
        },
        {
          "internalType": "string",
          "name": "_ipfsHash",
          "type": "string"
        },
        {
          "internalType": "string",
          "name": "_checksumFile",
          "type": "string"
        }
      ],
      "name": "uploadTx",
      "outputs": [],
      "payable": false,
      "stateMutability": "nonpayable",
      "type": "function"
    },
    {
      "constant": true,
      "inputs": [
        {
          "internalType": "string",
          "name": "_noLisensi",
          "type": "string"
        }
      ],
      "name": "getByNoLisensi",
      "outputs": [
        {
          "internalType": "uint256",
          "name": "",
          "type": "uint256"
        },
        {
          "internalType": "string",
          "name": "",
          "type": "string"
        },
        {
          "internalType": "string",
          "name": "",
          "type": "string"
        },
        {
          "internalType": "string",
          "name": "",
          "type": "string"
        },
        {
          "internalType": "string",
          "name": "",
          "type": "string"
        },
        {
          "internalType": "string",
          "name": "",
          "type": "string"
        },
        {
          "internalType": "string",
          "name": "",
          "type": "string"
        }
      ],
      "payable": false,
      "stateMutability": "view",
      "type": "function"
    },
    {
      "constant": true,
      "inputs": [
        {
          "internalType": "string",
          "name": "_checksumFile",
          "type": "string"
        }
      ],
      "name": "getByChecksum",
      "outputs": [
        {
          "internalType": "uint256",
          "name": "",
          "type": "uint256"
        },
        {
          "internalType": "string",
          "name": "",
          "type": "string"
        },
        {
          "internalType": "string",
          "name": "",
          "type": "string"
        },
        {
          "internalType": "string",
          "name": "",
          "type": "string"
        },
        {
          "internalType": "string",
          "name": "",
          "type": "string"
        },
        {
          "internalType": "string",
          "name": "",
          "type": "string"
        },
        {
          "internalType": "string",
          "name": "",
          "type": "string"
        }
      ],
      "payable": false,
      "stateMutability": "view",
      "type": "function"
    }
  ],
  "bytecode": "0x6080604052600060025534801561001557600080fd5b5061245d806100256000396000f3fe608060405234801561001057600080fd5b50600436106100575760003560e01c80631eff9f311461005c578063337908451461040a57806397fe5558146106d4578063ba0f3c6f14610a2b578063e6e4623814610d82575b600080fd5b610408600480360360c081101561007257600080fd5b810190808035906020019064010000000081111561008f57600080fd5b8201836020820111156100a157600080fd5b803590602001918460018302840111640100000000831117156100c357600080fd5b91908080601f016020809104026020016040519081016040528093929190818152602001838380828437600081840152601f19601f8201169050808301925050505050505091929192908035906020019064010000000081111561012657600080fd5b82018360208201111561013857600080fd5b8035906020019184600183028401116401000000008311171561015a57600080fd5b91908080601f016020809104026020016040519081016040528093929190818152602001838380828437600081840152601f19601f820116905080830192505050505050509192919290803590602001906401000000008111156101bd57600080fd5b8201836020820111156101cf57600080fd5b803590602001918460018302840111640100000000831117156101f157600080fd5b91908080601f016020809104026020016040519081016040528093929190818152602001838380828437600081840152601f19601f8201169050808301925050505050505091929192908035906020019064010000000081111561025457600080fd5b82018360208201111561026657600080fd5b8035906020019184600183028401116401000000008311171561028857600080fd5b91908080601f016020809104026020016040519081016040528093929190818152602001838380828437600081840152601f19601f820116905080830192505050505050509192919290803590602001906401000000008111156102eb57600080fd5b8201836020820111156102fd57600080fd5b8035906020019184600183028401116401000000008311171561031f57600080fd5b91908080601f016020809104026020016040519081016040528093929190818152602001838380828437600081840152601f19601f8201169050808301925050505050505091929192908035906020019064010000000081111561038257600080fd5b82018360208201111561039457600080fd5b803590602001918460018302840111640100000000831117156103b657600080fd5b91908080601f016020809104026020016040519081016040528093929190818152602001838380828437600081840152601f19601f820116905080830192505050505050509192919290505050610da0565b005b6104366004803603602081101561042057600080fd5b8101908080359060200190929190505050611437565b6040518088815260200180602001806020018060200180602001806020018060200187810387528d818151815260200191508051906020019080838360005b83811015610490578082015181840152602081019050610475565b50505050905090810190601f1680156104bd5780820380516001836020036101000a031916815260200191505b5087810386528c818151815260200191508051906020019080838360005b838110156104f65780820151818401526020810190506104db565b50505050905090810190601f1680156105235780820380516001836020036101000a031916815260200191505b5087810385528b818151815260200191508051906020019080838360005b8381101561055c578082015181840152602081019050610541565b50505050905090810190601f1680156105895780820380516001836020036101000a031916815260200191505b5087810384528a818151815260200191508051906020019080838360005b838110156105c25780820151818401526020810190506105a7565b50505050905090810190601f1680156105ef5780820380516001836020036101000a031916815260200191505b50878103835289818151815260200191508051906020019080838360005b8381101561062857808201518184015260208101905061060d565b50505050905090810190601f1680156106555780820380516001836020036101000a031916815260200191505b50878103825288818151815260200191508051906020019080838360005b8381101561068e578082015181840152602081019050610673565b50505050905090810190601f1680156106bb5780820380516001836020036101000a031916815260200191505b509d505050505050505050505050505060405180910390f35b61078d600480360360208110156106ea57600080fd5b810190808035906020019064010000000081111561070757600080fd5b82018360208201111561071957600080fd5b8035906020019184600183028401116401000000008311171561073b57600080fd5b91908080601f016020809104026020016040519081016040528093929190818152602001838380828437600081840152601f19601f820116905080830192505050505050509192919290505050611809565b6040518088815260200180602001806020018060200180602001806020018060200187810387528d818151815260200191508051906020019080838360005b838110156107e75780820151818401526020810190506107cc565b50505050905090810190601f1680156108145780820380516001836020036101000a031916815260200191505b5087810386528c818151815260200191508051906020019080838360005b8381101561084d578082015181840152602081019050610832565b50505050905090810190601f16801561087a5780820380516001836020036101000a031916815260200191505b5087810385528b818151815260200191508051906020019080838360005b838110156108b3578082015181840152602081019050610898565b50505050905090810190601f1680156108e05780820380516001836020036101000a031916815260200191505b5087810384528a818151815260200191508051906020019080838360005b838110156109195780820151818401526020810190506108fe565b50505050905090810190601f1680156109465780820380516001836020036101000a031916815260200191505b50878103835289818151815260200191508051906020019080838360005b8381101561097f578082015181840152602081019050610964565b50505050905090810190601f1680156109ac5780820380516001836020036101000a031916815260200191505b50878103825288818151815260200191508051906020019080838360005b838110156109e55780820151818401526020810190506109ca565b50505050905090810190601f168015610a125780820380516001836020036101000a031916815260200191505b509d505050505050505050505050505060405180910390f35b610ae460048036036020811015610a4157600080fd5b8101908080359060200190640100000000811115610a5e57600080fd5b820183602082011115610a7057600080fd5b80359060200191846001830284011164010000000083111715610a9257600080fd5b91908080601f016020809104026020016040519081016040528093929190818152602001838380828437600081840152601f19601f820116905080830192505050505050509192919290505050611dc3565b6040518088815260200180602001806020018060200180602001806020018060200187810387528d818151815260200191508051906020019080838360005b83811015610b3e578082015181840152602081019050610b23565b50505050905090810190601f168015610b6b5780820380516001836020036101000a031916815260200191505b5087810386528c818151815260200191508051906020019080838360005b83811015610ba4578082015181840152602081019050610b89565b50505050905090810190601f168015610bd15780820380516001836020036101000a031916815260200191505b5087810385528b818151815260200191508051906020019080838360005b83811015610c0a578082015181840152602081019050610bef565b50505050905090810190601f168015610c375780820380516001836020036101000a031916815260200191505b5087810384528a818151815260200191508051906020019080838360005b83811015610c70578082015181840152602081019050610c55565b50505050905090810190601f168015610c9d5780820380516001836020036101000a031916815260200191505b50878103835289818151815260200191508051906020019080838360005b83811015610cd6578082015181840152602081019050610cbb565b50505050905090810190601f168015610d035780820380516001836020036101000a031916815260200191505b50878103825288818151815260200191508051906020019080838360005b83811015610d3c578082015181840152602081019050610d21565b50505050905090810190601f168015610d695780820380516001836020036101000a031916815260200191505b509d505050505050505050505050505060405180910390f35b610d8a61237d565b6040518082815260200191505060405180910390f35b6002600081548092919060010191905055506040518060e001604052806002548152602001878152602001868152602001858152602001848152602001838152602001828152506000806002548152602001908152602001600020600082015181600001556020820151816001019080519060200190610e21929190612383565b506040820151816002019080519060200190610e3e929190612383565b506060820151816003019080519060200190610e5b929190612383565b506080820151816004019080519060200190610e78929190612383565b5060a0820151816005019080519060200190610e95929190612383565b5060c0820151816006019080519060200190610eb2929190612383565b509050506040518060e001604052806002548152602001878152602001868152602001858152602001848152602001838152602001828152506001876040518082805190602001908083835b60208310610f215780518252602082019150602081019050602083039250610efe565b6001836020036101000a0380198251168184511680821785525050505050509050019150509081526020016040518091039020600082015181600001556020820151816001019080519060200190610f7a929190612383565b506040820151816002019080519060200190610f97929190612383565b506060820151816003019080519060200190610fb4929190612383565b506080820151816004019080519060200190610fd1929190612383565b5060a0820151816005019080519060200190610fee929190612383565b5060c082015181600601908051906020019061100b929190612383565b509050506040518060e001604052806002548152602001878152602001868152602001858152602001848152602001838152602001828152506001826040518082805190602001908083835b6020831061107a5780518252602082019150602081019050602083039250611057565b6001836020036101000a03801982511681845116808217855250505050505090500191505090815260200160405180910390206000820151816000015560208201518160010190805190602001906110d3929190612383565b5060408201518160020190805190602001906110f0929190612383565b50606082015181600301908051906020019061110d929190612383565b50608082015181600401908051906020019061112a929190612383565b5060a0820151816005019080519060200190611147929190612383565b5060c0820151816006019080519060200190611164929190612383565b509050507f03e61d991b32b5705c3e6a1962b1a00042cfd160e249226343d7fe533a5c6ede6002548787878787876040518088815260200180602001806020018060200180602001806020018060200187810387528d818151815260200191508051906020019080838360005b838110156111ec5780820151818401526020810190506111d1565b50505050905090810190601f1680156112195780820380516001836020036101000a031916815260200191505b5087810386528c818151815260200191508051906020019080838360005b83811015611252578082015181840152602081019050611237565b50505050905090810190601f16801561127f5780820380516001836020036101000a031916815260200191505b5087810385528b818151815260200191508051906020019080838360005b838110156112b857808201518184015260208101905061129d565b50505050905090810190601f1680156112e55780820380516001836020036101000a031916815260200191505b5087810384528a818151815260200191508051906020019080838360005b8381101561131e578082015181840152602081019050611303565b50505050905090810190601f16801561134b5780820380516001836020036101000a031916815260200191505b50878103835289818151815260200191508051906020019080838360005b83811015611384578082015181840152602081019050611369565b50505050905090810190601f1680156113b15780820380516001836020036101000a031916815260200191505b50878103825288818151815260200191508051906020019080838360005b838110156113ea5780820151818401526020810190506113cf565b50505050905090810190601f1680156114175780820380516001836020036101000a031916815260200191505b509d505050505050505050505050505060405180910390a1505050505050565b6000602052806000526040600020600091509050806000015490806001018054600181600116156101000203166002900480601f0160208091040260200160405190810160405280929190818152602001828054600181600116156101000203166002900480156114e95780601f106114be576101008083540402835291602001916114e9565b820191906000526020600020905b8154815290600101906020018083116114cc57829003601f168201915b505050505090806002018054600181600116156101000203166002900480601f0160208091040260200160405190810160405280929190818152602001828054600181600116156101000203166002900480156115875780601f1061155c57610100808354040283529160200191611587565b820191906000526020600020905b81548152906001019060200180831161156a57829003601f168201915b505050505090806003018054600181600116156101000203166002900480601f0160208091040260200160405190810160405280929190818152602001828054600181600116156101000203166002900480156116255780601f106115fa57610100808354040283529160200191611625565b820191906000526020600020905b81548152906001019060200180831161160857829003601f168201915b505050505090806004018054600181600116156101000203166002900480601f0160208091040260200160405190810160405280929190818152602001828054600181600116156101000203166002900480156116c35780601f10611698576101008083540402835291602001916116c3565b820191906000526020600020905b8154815290600101906020018083116116a657829003601f168201915b505050505090806005018054600181600116156101000203166002900480601f0160208091040260200160405190810160405280929190818152602001828054600181600116156101000203166002900480156117615780601f1061173657610100808354040283529160200191611761565b820191906000526020600020905b81548152906001019060200180831161174457829003601f168201915b505050505090806006018054600181600116156101000203166002900480601f0160208091040260200160405190810160405280929190818152602001828054600181600116156101000203166002900480156117ff5780601f106117d4576101008083540402835291602001916117ff565b820191906000526020600020905b8154815290600101906020018083116117e257829003601f168201915b5050505050905087565b60006060806060806060806001886040518082805190602001908083835b6020831061184a5780518252602082019150602081019050602083039250611827565b6001836020036101000a0380198251168184511680821785525050505050509050019150509081526020016040518091039020600001548860018a6040518082805190602001908083835b602083106118b85780518252602082019150602081019050602083039250611895565b6001836020036101000a038019825116818451168082178552505050505050905001915050908152602001604051809103902060020160018b6040518082805190602001908083835b602083106119245780518252602082019150602081019050602083039250611901565b6001836020036101000a038019825116818451168082178552505050505050905001915050908152602001604051809103902060030160018c6040518082805190602001908083835b60208310611990578051825260208201915060208101905060208303925061196d565b6001836020036101000a038019825116818451168082178552505050505050905001915050908152602001604051809103902060040160018d6040518082805190602001908083835b602083106119fc57805182526020820191506020810190506020830392506119d9565b6001836020036101000a038019825116818451168082178552505050505050905001915050908152602001604051809103902060050160018e6040518082805190602001908083835b60208310611a685780518252602082019150602081019050602083039250611a45565b6001836020036101000a0380198251168184511680821785525050505050509050019150509081526020016040518091039020600601848054600181600116156101000203166002900480601f016020809104026020016040519081016040528092919081815260200182805460018160011615610100020316600290048015611b335780601f10611b0857610100808354040283529160200191611b33565b820191906000526020600020905b815481529060010190602001808311611b1657829003601f168201915b50505050509450838054600181600116156101000203166002900480601f016020809104026020016040519081016040528092919081815260200182805460018160011615610100020316600290048015611bcf5780601f10611ba457610100808354040283529160200191611bcf565b820191906000526020600020905b815481529060010190602001808311611bb257829003601f168201915b50505050509350828054600181600116156101000203166002900480601f016020809104026020016040519081016040528092919081815260200182805460018160011615610100020316600290048015611c6b5780601f10611c4057610100808354040283529160200191611c6b565b820191906000526020600020905b815481529060010190602001808311611c4e57829003601f168201915b50505050509250818054600181600116156101000203166002900480601f016020809104026020016040519081016040528092919081815260200182805460018160011615610100020316600290048015611d075780601f10611cdc57610100808354040283529160200191611d07565b820191906000526020600020905b815481529060010190602001808311611cea57829003601f168201915b50505050509150808054600181600116156101000203166002900480601f016020809104026020016040519081016040528092919081815260200182805460018160011615610100020316600290048015611da35780601f10611d7857610100808354040283529160200191611da3565b820191906000526020600020905b815481529060010190602001808311611d8657829003601f168201915b505050505090509650965096509650965096509650919395979092949650565b60006060806060806060806001886040518082805190602001908083835b60208310611e045780518252602082019150602081019050602083039250611de1565b6001836020036101000a0380198251168184511680821785525050505050509050019150509081526020016040518091039020600001546001896040518082805190602001908083835b60208310611e715780518252602082019150602081019050602083039250611e4e565b6001836020036101000a038019825116818451168082178552505050505050905001915050908152602001604051809103902060010160018a6040518082805190602001908083835b60208310611edd5780518252602082019150602081019050602083039250611eba565b6001836020036101000a038019825116818451168082178552505050505050905001915050908152602001604051809103902060020160018b6040518082805190602001908083835b60208310611f495780518252602082019150602081019050602083039250611f26565b6001836020036101000a038019825116818451168082178552505050505050905001915050908152602001604051809103902060030160018c6040518082805190602001908083835b60208310611fb55780518252602082019150602081019050602083039250611f92565b6001836020036101000a038019825116818451168082178552505050505050905001915050908152602001604051809103902060040160018d6040518082805190602001908083835b602083106120215780518252602082019150602081019050602083039250611ffe565b6001836020036101000a03801982511681845116808217855250505050505090500191505090815260200160405180910390206005018d858054600181600116156101000203166002900480601f0160208091040260200160405190810160405280929190818152602001828054600181600116156101000203166002900480156120ed5780601f106120c2576101008083540402835291602001916120ed565b820191906000526020600020905b8154815290600101906020018083116120d057829003601f168201915b50505050509550848054600181600116156101000203166002900480601f0160208091040260200160405190810160405280929190818152602001828054600181600116156101000203166002900480156121895780601f1061215e57610100808354040283529160200191612189565b820191906000526020600020905b81548152906001019060200180831161216c57829003601f168201915b50505050509450838054600181600116156101000203166002900480601f0160208091040260200160405190810160405280929190818152602001828054600181600116156101000203166002900480156122255780601f106121fa57610100808354040283529160200191612225565b820191906000526020600020905b81548152906001019060200180831161220857829003601f168201915b50505050509350828054600181600116156101000203166002900480601f0160208091040260200160405190810160405280929190818152602001828054600181600116156101000203166002900480156122c15780601f10612296576101008083540402835291602001916122c1565b820191906000526020600020905b8154815290600101906020018083116122a457829003601f168201915b50505050509250818054600181600116156101000203166002900480601f01602080910402602001604051908101604052809291908181526020018280546001816001161561010002031660029004801561235d5780601f106123325761010080835404028352916020019161235d565b820191906000526020600020905b81548152906001019060200180831161234057829003601f168201915b505050505091509650965096509650965096509650919395979092949650565b60025481565b828054600181600116156101000203166002900490600052602060002090601f016020900481019282601f106123c457805160ff19168380011785556123f2565b828001600101855582156123f2579182015b828111156123f15782518255916020019190600101906123d6565b5b5090506123ff9190612403565b5090565b61242591905b80821115612421576000816000905550600101612409565b5090565b9056fea265627a7a723158209ada712bd9fcb6b395c285cb01ac2a61a9a77ee42aef39d2aca909c10fd919ce64736f6c63430005100032",
  "source": "pragma solidity ^0.5.0;\r\n\r\ncontract Admin {\r\n    struct Licence{\r\n        uint id;\r\n        string noLisensi;\r\n        string namaMitra;\r\n        string alamat;\r\n        string tlp;\r\n        string ipfsHash;\r\n        string checksumFile;\r\n    }\r\n\r\n    mapping(uint => Licence) public licenses;\r\n    mapping(string => Licence) licensesSt;\r\n    uint public idCount = 0;\r\n     \r\n    event CreateTx(\r\n        uint id,\r\n        string noLisensi,\r\n        string namaMitra,\r\n        string alamat,\r\n        string tlp,\r\n        string ipfsHash,\r\n        string checksumFile\r\n    );\r\n    \r\n\r\n    function uploadTx(string memory _noLisensi, string memory _namaMitra, string memory _alamat, string memory _tlp, string memory _ipfsHash, string memory _checksumFile) public {\r\n        \r\n        idCount++;\r\n        licenses [idCount] = Licence(idCount, _noLisensi, _namaMitra, _alamat, _tlp, _ipfsHash, _checksumFile);\r\n        licensesSt [_noLisensi] = Licence(idCount, _noLisensi, _namaMitra, _alamat, _tlp, _ipfsHash, _checksumFile);\r\n        licensesSt [_checksumFile] = Licence(idCount, _noLisensi, _namaMitra, _alamat, _tlp, _ipfsHash, _checksumFile);\r\n        emit CreateTx(idCount, _noLisensi, _namaMitra, _alamat, _tlp, _ipfsHash, _checksumFile);\r\n    }\r\n\r\n    function getByNoLisensi(string memory _noLisensi) public view returns (uint, string memory, string memory, string memory, string memory, string memory, string memory){\r\n        return(\r\n            licensesSt[_noLisensi].id,\r\n            _noLisensi,\r\n            licensesSt[_noLisensi].namaMitra,\r\n            licensesSt[_noLisensi].alamat,\r\n            licensesSt[_noLisensi].tlp,\r\n            licensesSt[_noLisensi].ipfsHash,\r\n            licensesSt[_noLisensi].checksumFile\r\n            );   \r\n    } \r\n    \r\n    function getByChecksum(string memory _checksumFile) public view returns (uint, string memory, string memory, string memory, string memory, string memory, string memory){\r\n        return(\r\n            licensesSt[_checksumFile].id,\r\n            licensesSt[_checksumFile].noLisensi,\r\n            licensesSt[_checksumFile].namaMitra,\r\n            licensesSt[_checksumFile].alamat,\r\n            licensesSt[_checksumFile].tlp,\r\n            licensesSt[_checksumFile].ipfsHash,\r\n            _checksumFile\r\n            );   \r\n    }    \r\n}",
  "sourcePath": "D:/Blockchain/src/contracts/Admin.sol",
  "compiler": {
    "name": "solc",
    "version": "0.5.16+commit.9c3226ce.Emscripten.clang"
  },
  "schemaVersion": "3.2.3",
  "updatedAt": "2020-08-06T22:27:02.142Z",
  "networkType": "ethereum",
  "devdoc": {
    "methods": {}
  },
  "userdoc": {
    "methods": {}
  }
}